{
  "contractName": "ForensicReport",
  "abi": [
    {
      "inputs": [],
      "stateMutability": "nonpayable",
      "type": "constructor"
    },
    {
      "anonymous": false,
      "inputs": [
        {
          "indexed": false,
          "internalType": "uint256",
          "name": "subject_id",
          "type": "uint256"
        },
        {
          "indexed": false,
          "internalType": "address",
          "name": "owner",
          "type": "address"
        },
        {
          "indexed": false,
          "internalType": "string",
          "name": "subject_name",
          "type": "string"
        },
        {
          "indexed": false,
          "internalType": "uint256",
          "name": "subject_age",
          "type": "uint256"
        },
        {
          "indexed": false,
          "internalType": "string",
          "name": "subject_sex",
          "type": "string"
        },
        {
          "indexed": false,
          "internalType": "uint256",
          "name": "report_id",
          "type": "uint256"
        },
        {
          "indexed": false,
          "internalType": "string",
          "name": "caseNumber",
          "type": "string"
        },
        {
          "indexed": false,
          "internalType": "string",
          "name": "date",
          "type": "string"
        },
        {
          "indexed": false,
          "internalType": "string",
          "name": "location",
          "type": "string"
        },
        {
          "indexed": false,
          "internalType": "string",
          "name": "description",
          "type": "string"
        },
        {
          "indexed": false,
          "internalType": "string",
          "name": "evidence",
          "type": "string"
        },
        {
          "indexed": false,
          "internalType": "string",
          "name": "conclusions",
          "type": "string"
        }
      ],
      "name": "subjectReportAccessed",
      "type": "event"
    },
    {
      "anonymous": false,
      "inputs": [
        {
          "indexed": false,
          "internalType": "uint256",
          "name": "subject_id",
          "type": "uint256"
        },
        {
          "indexed": false,
          "internalType": "address",
          "name": "owner",
          "type": "address"
        },
        {
          "indexed": false,
          "internalType": "string",
          "name": "subject_name",
          "type": "string"
        },
        {
          "indexed": false,
          "internalType": "uint256",
          "name": "subject_age",
          "type": "uint256"
        },
        {
          "indexed": false,
          "internalType": "string",
          "name": "subject_sex",
          "type": "string"
        },
        {
          "indexed": false,
          "internalType": "uint256",
          "name": "report_id",
          "type": "uint256"
        },
        {
          "indexed": false,
          "internalType": "string",
          "name": "caseNumber",
          "type": "string"
        },
        {
          "indexed": false,
          "internalType": "string",
          "name": "date",
          "type": "string"
        },
        {
          "indexed": false,
          "internalType": "string",
          "name": "location",
          "type": "string"
        },
        {
          "indexed": false,
          "internalType": "string",
          "name": "description",
          "type": "string"
        },
        {
          "indexed": false,
          "internalType": "string",
          "name": "evidence",
          "type": "string"
        },
        {
          "indexed": false,
          "internalType": "string",
          "name": "conclusions",
          "type": "string"
        }
      ],
      "name": "subjectReportCreated",
      "type": "event"
    },
    {
      "inputs": [],
      "name": "name",
      "outputs": [
        {
          "internalType": "string",
          "name": "",
          "type": "string"
        }
      ],
      "stateMutability": "view",
      "type": "function"
    },
    {
      "inputs": [],
      "name": "reportCount",
      "outputs": [
        {
          "internalType": "uint256",
          "name": "",
          "type": "uint256"
        }
      ],
      "stateMutability": "view",
      "type": "function"
    },
    {
      "inputs": [
        {
          "internalType": "uint256",
          "name": "",
          "type": "uint256"
        }
      ],
      "name": "subjectReports",
      "outputs": [
        {
          "internalType": "uint256",
          "name": "subject_id",
          "type": "uint256"
        },
        {
          "internalType": "address",
          "name": "owner",
          "type": "address"
        },
        {
          "internalType": "string",
          "name": "subject_name",
          "type": "string"
        },
        {
          "internalType": "uint256",
          "name": "subject_age",
          "type": "uint256"
        },
        {
          "internalType": "string",
          "name": "subject_sex",
          "type": "string"
        },
        {
          "internalType": "uint256",
          "name": "report_id",
          "type": "uint256"
        },
        {
          "internalType": "string",
          "name": "caseNumber",
          "type": "string"
        },
        {
          "internalType": "string",
          "name": "date",
          "type": "string"
        },
        {
          "internalType": "string",
          "name": "location",
          "type": "string"
        },
        {
          "internalType": "string",
          "name": "description",
          "type": "string"
        },
        {
          "internalType": "string",
          "name": "evidence",
          "type": "string"
        },
        {
          "internalType": "string",
          "name": "conclusions",
          "type": "string"
        }
      ],
      "stateMutability": "view",
      "type": "function"
    },
    {
      "inputs": [
        {
          "internalType": "string",
          "name": "_subject_name",
          "type": "string"
        },
        {
          "internalType": "uint256",
          "name": "_subject_age",
          "type": "uint256"
        },
        {
          "internalType": "string",
          "name": "_subject_sex",
          "type": "string"
        },
        {
          "internalType": "uint256",
          "name": "_report_id",
          "type": "uint256"
        },
        {
          "internalType": "string",
          "name": "_caseNumber",
          "type": "string"
        },
        {
          "internalType": "string",
          "name": "_date",
          "type": "string"
        },
        {
          "internalType": "string",
          "name": "_location",
          "type": "string"
        },
        {
          "internalType": "string",
          "name": "_description",
          "type": "string"
        },
        {
          "internalType": "string",
          "name": "_evidence",
          "type": "string"
        },
        {
          "internalType": "string",
          "name": "_conclusions",
          "type": "string"
        }
      ],
      "name": "createReport",
      "outputs": [],
      "stateMutability": "nonpayable",
      "type": "function"
    },
    {
      "inputs": [
        {
          "internalType": "uint256",
          "name": "_subject_id",
          "type": "uint256"
        }
      ],
      "name": "requestAccess",
      "outputs": [],
      "stateMutability": "nonpayable",
      "type": "function"
    }
  ],
  "bytecode": "0x608060405260006001553480156200001657600080fd5b506040518060400160405280600781526020017f50726f6a65637400000000000000000000000000000000000000000000000000815250600090816200005d9190620002de565b50620003c5565b600081519050919050565b7f4e487b7100000000000000000000000000000000000000000000000000000000600052604160045260246000fd5b7f4e487b7100000000000000000000000000000000000000000000000000000000600052602260045260246000fd5b60006002820490506001821680620000e657607f821691505b602082108103620000fc57620000fb6200009e565b5b50919050565b60008190508160005260206000209050919050565b60006020601f8301049050919050565b600082821b905092915050565b600060088302620001667fffffffffffffffffffffffffffffffffffffffffffffffffffffffffffffffff8262000127565b62000172868362000127565b95508019841693508086168417925050509392505050565b6000819050919050565b6000819050919050565b6000620001bf620001b9620001b3846200018a565b62000194565b6200018a565b9050919050565b6000819050919050565b620001db836200019e565b620001f3620001ea82620001c6565b84845462000134565b825550505050565b600090565b6200020a620001fb565b62000217818484620001d0565b505050565b5b818110156200023f576200023360008262000200565b6001810190506200021d565b5050565b601f8211156200028e57620002588162000102565b620002638462000117565b8101602085101562000273578190505b6200028b620002828562000117565b8301826200021c565b50505b505050565b600082821c905092915050565b6000620002b36000198460080262000293565b1980831691505092915050565b6000620002ce8383620002a0565b9150826002028217905092915050565b620002e98262000064565b67ffffffffffffffff8111156200030557620003046200006f565b5b620003118254620000cd565b6200031e82828562000243565b600060209050601f83116001811462000356576000841562000341578287015190505b6200034d8582620002c0565b865550620003bd565b601f198416620003668662000102565b60005b82811015620003905784890151825560018201915060208501945060208101905062000369565b86831015620003b05784890151620003ac601f891682620002a0565b8355505b6001600288020188555050505b505050505050565b61190c80620003d56000396000f3fe608060405234801561001057600080fd5b50600436106100575760003560e01c806306fdde031461005c578063185c6f841461007a578063550309de146100985780636020039f146100b45780637fdc2cdc146100ef575b600080fd5b61006461010b565b6040516100719190611097565b60405180910390f35b610082610199565b60405161008f91906110d2565b60405180910390f35b6100b260048036038101906100ad9190611262565b61019f565b005b6100ce60048036038101906100c99190611421565b6103d4565b6040516100e69c9b9a9998979695949392919061148f565b60405180910390f35b61010960048036038101906101049190611421565b610894565b005b60008054610118906115b0565b80601f0160208091040260200160405190810160405280929190818152602001828054610144906115b0565b80156101915780601f1061016657610100808354040283529160200191610191565b820191906000526020600020905b81548152906001019060200180831161017457829003601f168201915b505050505081565b60015481565b60008a511180156101b05750600089115b6101b957600080fd5b600087116101c657600080fd5b600160008154809291906101d990611610565b919050555060405180610180016040528060015481526020013373ffffffffffffffffffffffffffffffffffffffff1681526020018b81526020018a8152602001898152602001888152602001878152602001868152602001858152602001848152602001838152602001828152506002600060015481526020019081526020016000206000820151816000015560208201518160010160006101000a81548173ffffffffffffffffffffffffffffffffffffffff021916908373ffffffffffffffffffffffffffffffffffffffff16021790555060408201518160020190816102c39190611804565b506060820151816003015560808201518160040190816102e39190611804565b5060a0820151816005015560c08201518160060190816103039190611804565b5060e08201518160070190816103199190611804565b506101008201518160080190816103309190611804565b506101208201518160090190816103479190611804565b5061014082015181600a01908161035e9190611804565b5061016082015181600b0190816103759190611804565b509050507fc75ad70560622ec0bbee13b1d85140e128d4924aac197a5ac278dbd722c300dc600154338c8c8c8c8c8c8c8c8c8c6040516103c09c9b9a9998979695949392919061148f565b60405180910390a150505050505050505050565b60026020528060005260406000206000915090508060000154908060010160009054906101000a900473ffffffffffffffffffffffffffffffffffffffff1690806002018054610423906115b0565b80601f016020809104026020016040519081016040528092919081815260200182805461044f906115b0565b801561049c5780601f106104715761010080835404028352916020019161049c565b820191906000526020600020905b81548152906001019060200180831161047f57829003601f168201915b5050505050908060030154908060040180546104b7906115b0565b80601f01602080910402602001604051908101604052809291908181526020018280546104e3906115b0565b80156105305780601f1061050557610100808354040283529160200191610530565b820191906000526020600020905b81548152906001019060200180831161051357829003601f168201915b50505050509080600501549080600601805461054b906115b0565b80601f0160208091040260200160405190810160405280929190818152602001828054610577906115b0565b80156105c45780601f10610599576101008083540402835291602001916105c4565b820191906000526020600020905b8154815290600101906020018083116105a757829003601f168201915b5050505050908060070180546105d9906115b0565b80601f0160208091040260200160405190810160405280929190818152602001828054610605906115b0565b80156106525780601f1061062757610100808354040283529160200191610652565b820191906000526020600020905b81548152906001019060200180831161063557829003601f168201915b505050505090806008018054610667906115b0565b80601f0160208091040260200160405190810160405280929190818152602001828054610693906115b0565b80156106e05780601f106106b5576101008083540402835291602001916106e0565b820191906000526020600020905b8154815290600101906020018083116106c357829003601f168201915b5050505050908060090180546106f5906115b0565b80601f0160208091040260200160405190810160405280929190818152602001828054610721906115b0565b801561076e5780601f106107435761010080835404028352916020019161076e565b820191906000526020600020905b81548152906001019060200180831161075157829003601f168201915b50505050509080600a018054610783906115b0565b80601f01602080910402602001604051908101604052809291908181526020018280546107af906115b0565b80156107fc5780601f106107d1576101008083540402835291602001916107fc565b820191906000526020600020905b8154815290600101906020018083116107df57829003601f168201915b50505050509080600b018054610811906115b0565b80601f016020809104026020016040519081016040528092919081815260200182805461083d906115b0565b801561088a5780601f1061085f5761010080835404028352916020019161088a565b820191906000526020600020905b81548152906001019060200180831161086d57829003601f168201915b505050505090508c565b60006002600083815260200190815260200160002060405180610180016040529081600082015481526020016001820160009054906101000a900473ffffffffffffffffffffffffffffffffffffffff1673ffffffffffffffffffffffffffffffffffffffff1673ffffffffffffffffffffffffffffffffffffffff168152602001600282018054610925906115b0565b80601f0160208091040260200160405190810160405280929190818152602001828054610951906115b0565b801561099e5780601f106109735761010080835404028352916020019161099e565b820191906000526020600020905b81548152906001019060200180831161098157829003601f168201915b50505050508152602001600382015481526020016004820180546109c1906115b0565b80601f01602080910402602001604051908101604052809291908181526020018280546109ed906115b0565b8015610a3a5780601f10610a0f57610100808354040283529160200191610a3a565b820191906000526020600020905b815481529060010190602001808311610a1d57829003601f168201915b5050505050815260200160058201548152602001600682018054610a5d906115b0565b80601f0160208091040260200160405190810160405280929190818152602001828054610a89906115b0565b8015610ad65780601f10610aab57610100808354040283529160200191610ad6565b820191906000526020600020905b815481529060010190602001808311610ab957829003601f168201915b50505050508152602001600782018054610aef906115b0565b80601f0160208091040260200160405190810160405280929190818152602001828054610b1b906115b0565b8015610b685780601f10610b3d57610100808354040283529160200191610b68565b820191906000526020600020905b815481529060010190602001808311610b4b57829003601f168201915b50505050508152602001600882018054610b81906115b0565b80601f0160208091040260200160405190810160405280929190818152602001828054610bad906115b0565b8015610bfa5780601f10610bcf57610100808354040283529160200191610bfa565b820191906000526020600020905b815481529060010190602001808311610bdd57829003601f168201915b50505050508152602001600982018054610c13906115b0565b80601f0160208091040260200160405190810160405280929190818152602001828054610c3f906115b0565b8015610c8c5780601f10610c6157610100808354040283529160200191610c8c565b820191906000526020600020905b815481529060010190602001808311610c6f57829003601f168201915b50505050508152602001600a82018054610ca5906115b0565b80601f0160208091040260200160405190810160405280929190818152602001828054610cd1906115b0565b8015610d1e5780601f10610cf357610100808354040283529160200191610d1e565b820191906000526020600020905b815481529060010190602001808311610d0157829003601f168201915b50505050508152602001600b82018054610d37906115b0565b80601f0160208091040260200160405190810160405280929190818152602001828054610d63906115b0565b8015610db05780601f10610d8557610100808354040283529160200191610db0565b820191906000526020600020905b815481529060010190602001808311610d9357829003601f168201915b505050505081525050905060008160200151905060008260000151118015610dde5750600154826000015111155b610de757600080fd5b3373ffffffffffffffffffffffffffffffffffffffff168173ffffffffffffffffffffffffffffffffffffffff1603610e1f57600080fd5b33826020019073ffffffffffffffffffffffffffffffffffffffff16908173ffffffffffffffffffffffffffffffffffffffff168152505081600260008581526020019081526020016000206000820151816000015560208201518160010160006101000a81548173ffffffffffffffffffffffffffffffffffffffff021916908373ffffffffffffffffffffffffffffffffffffffff1602179055506040820151816002019081610ed19190611804565b50606082015181600301556080820151816004019081610ef19190611804565b5060a0820151816005015560c0820151816006019081610f119190611804565b5060e0820151816007019081610f279190611804565b50610100820151816008019081610f3e9190611804565b50610120820151816009019081610f559190611804565b5061014082015181600a019081610f6c9190611804565b5061016082015181600b019081610f839190611804565b509050507fe5858c095216909db83f9b94588fc61f93f839a86d03f8b6f52eb08cc98fb08a600154338460400151856060015186608001518760a001518860c001518960e001518a61010001518b61012001518c61014001518d6101600151604051610ffa9c9b9a9998979695949392919061148f565b60405180910390a1505050565b600081519050919050565b600082825260208201905092915050565b60005b83811015611041578082015181840152602081019050611026565b60008484015250505050565b6000601f19601f8301169050919050565b600061106982611007565b6110738185611012565b9350611083818560208601611023565b61108c8161104d565b840191505092915050565b600060208201905081810360008301526110b1818461105e565b905092915050565b6000819050919050565b6110cc816110b9565b82525050565b60006020820190506110e760008301846110c3565b92915050565b6000604051905090565b600080fd5b600080fd5b600080fd5b600080fd5b7f4e487b7100000000000000000000000000000000000000000000000000000000600052604160045260246000fd5b6111438261104d565b810181811067ffffffffffffffff821117156111625761116161110b565b5b80604052505050565b60006111756110ed565b9050611181828261113a565b919050565b600067ffffffffffffffff8211156111a1576111a061110b565b5b6111aa8261104d565b9050602081019050919050565b82818337600083830152505050565b60006111d96111d484611186565b61116b565b9050828152602081018484840111156111f5576111f4611106565b5b6112008482856111b7565b509392505050565b600082601f83011261121d5761121c611101565b5b813561122d8482602086016111c6565b91505092915050565b61123f816110b9565b811461124a57600080fd5b50565b60008135905061125c81611236565b92915050565b6000806000806000806000806000806101408b8d031215611286576112856110f7565b5b60008b013567ffffffffffffffff8111156112a4576112a36110fc565b5b6112b08d828e01611208565b9a505060206112c18d828e0161124d565b99505060408b013567ffffffffffffffff8111156112e2576112e16110fc565b5b6112ee8d828e01611208565b98505060606112ff8d828e0161124d565b97505060808b013567ffffffffffffffff8111156113205761131f6110fc565b5b61132c8d828e01611208565b96505060a08b013567ffffffffffffffff81111561134d5761134c6110fc565b5b6113598d828e01611208565b95505060c08b013567ffffffffffffffff81111561137a576113796110fc565b5b6113868d828e01611208565b94505060e08b013567ffffffffffffffff8111156113a7576113a66110fc565b5b6113b38d828e01611208565b9350506101008b013567ffffffffffffffff8111156113d5576113d46110fc565b5b6113e18d828e01611208565b9250506101208b013567ffffffffffffffff811115611403576114026110fc565b5b61140f8d828e01611208565b9150509295989b9194979a5092959850565b600060208284031215611437576114366110f7565b5b60006114458482850161124d565b91505092915050565b600073ffffffffffffffffffffffffffffffffffffffff82169050919050565b60006114798261144e565b9050919050565b6114898161146e565b82525050565b6000610180820190506114a5600083018f6110c3565b6114b2602083018e611480565b81810360408301526114c4818d61105e565b90506114d3606083018c6110c3565b81810360808301526114e5818b61105e565b90506114f460a083018a6110c3565b81810360c0830152611506818961105e565b905081810360e083015261151a818861105e565b905081810361010083015261152f818761105e565b9050818103610120830152611544818661105e565b9050818103610140830152611559818561105e565b905081810361016083015261156e818461105e565b90509d9c50505050505050505050505050565b7f4e487b7100000000000000000000000000000000000000000000000000000000600052602260045260246000fd5b600060028204905060018216806115c857607f821691505b6020821081036115db576115da611581565b5b50919050565b7f4e487b7100000000000000000000000000000000000000000000000000000000600052601160045260246000fd5b600061161b826110b9565b91507fffffffffffffffffffffffffffffffffffffffffffffffffffffffffffffffff820361164d5761164c6115e1565b5b600182019050919050565b60008190508160005260206000209050919050565b60006020601f8301049050919050565b600082821b905092915050565b6000600883026116ba7fffffffffffffffffffffffffffffffffffffffffffffffffffffffffffffffff8261167d565b6116c4868361167d565b95508019841693508086168417925050509392505050565b6000819050919050565b60006117016116fc6116f7846110b9565b6116dc565b6110b9565b9050919050565b6000819050919050565b61171b836116e6565b61172f61172782611708565b84845461168a565b825550505050565b600090565b611744611737565b61174f818484611712565b505050565b5b818110156117735761176860008261173c565b600181019050611755565b5050565b601f8211156117b85761178981611658565b6117928461166d565b810160208510156117a1578190505b6117b56117ad8561166d565b830182611754565b50505b505050565b600082821c905092915050565b60006117db600019846008026117bd565b1980831691505092915050565b60006117f483836117ca565b9150826002028217905092915050565b61180d82611007565b67ffffffffffffffff8111156118265761182561110b565b5b61183082546115b0565b61183b828285611777565b600060209050601f83116001811461186e576000841561185c578287015190505b61186685826117e8565b8655506118ce565b601f19841661187c86611658565b60005b828110156118a45784890151825560018201915060208501945060208101905061187f565b868310156118c157848901516118bd601f8916826117ca565b8355505b6001600288020188555050505b50505050505056fea2646970667358221220d6f1526e14259b444fe0853e5931e7e7291047cc5ea0628a495ec3149446472964736f6c63430008130033",
  "immutableReferences": {},
  "source": "//solidity version should be less than or equal to 0.8.19\r\n// SPDX-License-Identifier: MIT\r\npragma solidity >=0.5.0;\r\n\r\ncontract ForensicReport\r\n{\r\n    \r\n    string public name;\r\n\r\n    uint public reportCount = 0;\r\n    //uint256 code_modulus = 10**16;\r\n    mapping(uint => SubjectReport) public subjectReports;\r\n\r\n    struct SubjectReport\r\n    {\r\n        uint subject_id;\r\n        //uint unique_subject_id;\r\n        address owner;\r\n        string subject_name;\r\n        uint subject_age;\r\n        string subject_sex;\r\n        uint report_id;\r\n        string caseNumber;\r\n        string date;\r\n        string location;\r\n        string description;\r\n        string evidence;\r\n        string conclusions;\r\n    }\r\n\r\n    event subjectReportCreated(\r\n        uint subject_id, \r\n        address owner,\r\n        string subject_name, \r\n        uint subject_age, \r\n        string subject_sex,\r\n        uint report_id,\r\n        string caseNumber,\r\n        string date,\r\n        string location,\r\n        string description,\r\n        string evidence,\r\n        string conclusions      \r\n    );\r\n\r\n    event subjectReportAccessed(\r\n        uint subject_id, \r\n        address owner,\r\n        string subject_name, \r\n        uint subject_age, \r\n        string subject_sex,\r\n        uint report_id,\r\n        string caseNumber,\r\n        string date,\r\n        string location,\r\n        string description,\r\n        string evidence,\r\n        string conclusions      \r\n    );\r\n\r\n    constructor() public {\r\n        name = \"Project\";\r\n    }\r\n\r\n    /*function generate_unique_id(\r\n        uint _subject_id,\r\n        string memory _subject_name,\r\n        uint _subject_age,\r\n        string memory _subject_sex\r\n    ) public view returns (uint)\r\n    {\r\n        uint hash_id = uint(keccak256(abi.encodePacked(_subject_id, _subject_name, _subject_age, _subject_sex)));\r\n        return hash_id % code_modulus;\r\n    }*/\r\n\r\n    function createReport(\r\n        string memory _subject_name,\r\n        uint _subject_age,\r\n        string memory _subject_sex,\r\n        uint _report_id,\r\n        string memory _caseNumber,\r\n        string memory _date,\r\n        string memory _location,\r\n        string memory _description,\r\n        string memory _evidence,\r\n        string memory _conclusions\r\n    ) public \r\n    {\r\n        //Require a valid subject name and age\r\n        require(bytes(_subject_name).length > 0 && _subject_age > 0);\r\n        //Require a valid report id\r\n        require(_report_id > 0);\r\n        //Increment report count\r\n        reportCount ++;\r\n        //Generate unique id\r\n        //uint _unique_id = generate_unique_id(reportCount,_subject_name,_subject_age,_subject_sex);\r\n        //Create and add the report\r\n        subjectReports[reportCount] = SubjectReport(reportCount, msg.sender, _subject_name, _subject_age, _subject_sex, _report_id, _caseNumber, _date, _location, _description, _evidence, _conclusions);\r\n        //Trigger an event\r\n        emit subjectReportCreated(reportCount, msg.sender, _subject_name, _subject_age, _subject_sex, _report_id, _caseNumber, _date, _location, _description, _evidence, _conclusions);\r\n    }\r\n\r\n    function requestAccess(\r\n        uint _subject_id\r\n    ) public\r\n    {\r\n        //Fetch the subject report \r\n        SubjectReport memory _report = subjectReports[_subject_id];\r\n        //Fetch the owner\r\n        address _pathologist = _report.owner;\r\n        //Make sure that the subject id is valid\r\n        require(_report.subject_id > 0 && _report.subject_id <= reportCount);\r\n        // Require that pathologist is not request access\r\n        require(_pathologist != msg.sender);\r\n        //Take access\r\n        _report.owner = msg.sender;\r\n        //Update the list\r\n        subjectReports[_subject_id] = _report;\r\n        //Trigger an event\r\n        emit subjectReportAccessed(reportCount, msg.sender, _report.subject_name, _report.subject_age, _report.subject_sex, _report.report_id, _report.caseNumber, _report.date, _report.location, _report.description, _report.evidence, _report.conclusions);\r\n    }\r\n}",
  "sourcePath": "C:\\Users\\dell\\Documents\\TARP\\Project\\src\\contracts\\ForensicReport.sol",
  "compiler": {
    "name": "solc",
    "version": "0.8.19+commit.7dd6d404.Emscripten.clang"
  },
  "schemaVersion": "3.4.13",
  "updatedAt": "2023-04-20T14:28:56.109Z",
  "devdoc": {
    "kind": "dev",
    "methods": {},
    "version": 1
  },
  "userdoc": {
    "kind": "user",
    "methods": {},
    "version": 1
  }
}